{
  "address": "0x51E4f6Fc6D8AA2F33dc31aCD8f8Ae1697ad28d9a",
  "abi": [
    {
      "inputs": [],
      "name": "InvalidToken",
      "type": "error"
    },
    {
      "inputs": [],
      "name": "NotAllowedToken",
      "type": "error"
    },
    {
      "inputs": [],
      "name": "NotEnoughAmount",
      "type": "error"
    },
    {
      "inputs": [],
      "name": "NotEnoughBalanceOrApproval",
      "type": "error"
    },
    {
      "inputs": [],
      "name": "WithdrawFail",
      "type": "error"
    },
    {
      "anonymous": false,
      "inputs": [
        {
          "indexed": true,
          "internalType": "address",
          "name": "token",
          "type": "address"
        },
        {
          "indexed": true,
          "internalType": "bool",
          "name": "allowed",
          "type": "bool"
        }
      ],
      "name": "AllowToken",
      "type": "event"
    },
    {
      "anonymous": false,
      "inputs": [
        {
          "indexed": true,
          "internalType": "address",
          "name": "user",
          "type": "address"
        },
        {
          "indexed": true,
          "internalType": "address",
          "name": "token",
          "type": "address"
        },
        {
          "indexed": true,
          "internalType": "uint256",
          "name": "amount",
          "type": "uint256"
        }
      ],
      "name": "Deposit",
      "type": "event"
    },
    {
      "anonymous": false,
      "inputs": [
        {
          "indexed": true,
          "internalType": "address",
          "name": "previousOwner",
          "type": "address"
        },
        {
          "indexed": true,
          "internalType": "address",
          "name": "newOwner",
          "type": "address"
        }
      ],
      "name": "OwnershipTransferred",
      "type": "event"
    },
    {
      "anonymous": false,
      "inputs": [
        {
          "indexed": true,
          "internalType": "address",
          "name": "token",
          "type": "address"
        },
        {
          "indexed": true,
          "internalType": "uint256",
          "name": "amount",
          "type": "uint256"
        }
      ],
      "name": "Withdraw",
      "type": "event"
    },
    {
      "stateMutability": "payable",
      "type": "fallback"
    },
    {
      "inputs": [
        {
          "internalType": "address",
          "name": "_token",
          "type": "address"
        },
        {
          "internalType": "bool",
          "name": "_allow",
          "type": "bool"
        }
      ],
      "name": "allowERC20",
      "outputs": [],
      "stateMutability": "nonpayable",
      "type": "function"
    },
    {
      "inputs": [
        {
          "internalType": "address",
          "name": "_token",
          "type": "address"
        },
        {
          "internalType": "uint256",
          "name": "_amount",
          "type": "uint256"
        }
      ],
      "name": "deposit",
      "outputs": [],
      "stateMutability": "payable",
      "type": "function"
    },
    {
      "inputs": [],
      "name": "owner",
      "outputs": [
        {
          "internalType": "address",
          "name": "",
          "type": "address"
        }
      ],
      "stateMutability": "view",
      "type": "function"
    },
    {
      "inputs": [],
      "name": "renounceOwnership",
      "outputs": [],
      "stateMutability": "nonpayable",
      "type": "function"
    },
    {
      "inputs": [
        {
          "internalType": "string",
          "name": "_title",
          "type": "string"
        }
      ],
      "name": "setCampaignTitle",
      "outputs": [],
      "stateMutability": "nonpayable",
      "type": "function"
    },
    {
      "inputs": [],
      "name": "title",
      "outputs": [
        {
          "internalType": "string",
          "name": "",
          "type": "string"
        }
      ],
      "stateMutability": "view",
      "type": "function"
    },
    {
      "inputs": [
        {
          "internalType": "address",
          "name": "",
          "type": "address"
        }
      ],
      "name": "tokenAllowlist",
      "outputs": [
        {
          "internalType": "bool",
          "name": "",
          "type": "bool"
        }
      ],
      "stateMutability": "view",
      "type": "function"
    },
    {
      "inputs": [
        {
          "internalType": "address",
          "name": "newOwner",
          "type": "address"
        }
      ],
      "name": "transferOwnership",
      "outputs": [],
      "stateMutability": "nonpayable",
      "type": "function"
    },
    {
      "inputs": [
        {
          "internalType": "address",
          "name": "_token",
          "type": "address"
        }
      ],
      "name": "withdraw",
      "outputs": [],
      "stateMutability": "nonpayable",
      "type": "function"
    },
    {
      "stateMutability": "payable",
      "type": "receive"
    }
  ],
  "transactionHash": "0xaf89082fa7dd424101cb5a790709b0e1a56ae99ceeb3bb85d9a43eff302921d1",
  "args": [],
  "numDeployments": 1,
  "solcInputHash": "15fa4258fc65a96111e8eada9dca4d78",
  "bytecode": "0x608060405234801561001057600080fd5b5061001a3361001f565b61006f565b600080546001600160a01b038381166001600160a01b0319831681178455604051919092169283917f8be0079c531659141344cd1fd0a4f28419497f9722a3daafe3b4186f6b6457e09190a35050565b610cc28061007e6000396000f3fe60806040526004361061009a5760003560e01c8063715018a6116100695780638da5cb5b1161004e5780638da5cb5b146101d6578063c3306450146101fe578063f2fde38b1461021e576100d0565b8063715018a6146101815780638135369a14610196576100d0565b806347e7ef24146101015780634a79d50c1461011657806351cff8d914610141578063654f296c14610161576100d0565b366100d057604051349060009033907f5548c837ab068cf56a2c2479df0882a4922fd203edb7517321831d95078c5f62908390a4005b604051349060009033907f5548c837ab068cf56a2c2479df0882a4922fd203edb7517321831d95078c5f62908390a4005b61011461010f366004610935565b61023e565b005b34801561012257600080fd5b5061012b610291565b604051610138919061095f565b60405180910390f35b34801561014d57600080fd5b5061011461015c3660046109ad565b61031f565b34801561016d57600080fd5b5061011461017c3660046109dd565b61054a565b34801561018d57600080fd5b506101146105c4565b3480156101a257600080fd5b506101c66101b13660046109ad565b60026020526000908152604090205460ff1681565b6040519015158152602001610138565b3480156101e257600080fd5b506000546040516001600160a01b039091168152602001610138565b34801561020a57600080fd5b50610114610219366004610a43565b6105d8565b34801561022a57600080fd5b506101146102393660046109ad565b6105ec565b341561027457604051349060009033907f5548c837ab068cf56a2c2479df0882a4922fd203edb7517321831d95078c5f62908390a45b6001600160a01b0382161561028d5761028d828261069b565b5050565b6001805461029e90610af4565b80601f01602080910402602001604051908101604052809291908181526020018280546102ca90610af4565b80156103175780601f106102ec57610100808354040283529160200191610317565b820191906000526020600020905b8154815290600101906020018083116102fa57829003601f168201915b505050505081565b61032761083d565b6000806001600160a01b0383166103a657504761034c6000546001600160a01b031690565b6001600160a01b03168160405160006040518083038185875af1925050503d8060008114610396576040519150601f19603f3d011682016040523d82523d6000602084013e61039b565b606091505b5050809250506104d9565b6040517f70a0823100000000000000000000000000000000000000000000000000000000815230600482015283906001600160a01b038216906370a0823190602401602060405180830381865afa158015610405573d6000803e3d6000fd5b505050506040513d601f19601f820116820180604052508101906104299190610b47565b9150806001600160a01b031663a9059cbb61044c6000546001600160a01b031690565b6040517fffffffff0000000000000000000000000000000000000000000000000000000060e084901b1681526001600160a01b039091166004820152602481018590526044016020604051808303816000875af11580156104b1573d6000803e3d6000fd5b505050506040513d601f19601f820116820180604052508101906104d59190610b60565b9250505b8161050f576040517ec0f29900000000000000000000000000000000000000000000000000000000815260040160405180910390fd5b60405181906001600160a01b038516907f884edad9ce6fa2440d8a54cc123490eb96d2768479d49ff9c7366125a942436490600090a3505050565b61055261083d565b6001600160a01b03821660008181526002602052604080822080547fffffffffffffffffffffffffffffffffffffffffffffffffffffffffffffff001685151590811790915590519092917ffd7b8b452872251540ceb739782450d15edf99ad81e61c0049af9c6fdaba585491a35050565b6105cc61083d565b6105d660006108b1565b565b6105e061083d565b600161028d8282610bcc565b6105f461083d565b6001600160a01b03811661068f576040517f08c379a000000000000000000000000000000000000000000000000000000000815260206004820152602660248201527f4f776e61626c653a206e6577206f776e657220697320746865207a65726f206160448201527f646472657373000000000000000000000000000000000000000000000000000060648201526084015b60405180910390fd5b610698816108b1565b50565b6001600160a01b0382166106db576040517fc1ab6dc100000000000000000000000000000000000000000000000000000000815260040160405180910390fd5b6001600160a01b03821660009081526002602052604081205460ff1615159003610731576040517fe1478bb000000000000000000000000000000000000000000000000000000000815260040160405180910390fd5b6040517f23b872dd0000000000000000000000000000000000000000000000000000000081523360048201523060248201526044810182905282906000906001600160a01b038316906323b872dd906064016020604051808303816000875af11580156107a2573d6000803e3d6000fd5b505050506040513d601f19601f820116820180604052508101906107c69190610b60565b9050806107ff576040517f53ce622b00000000000000000000000000000000000000000000000000000000815260040160405180910390fd5b60405183906001600160a01b0386169033907f5548c837ab068cf56a2c2479df0882a4922fd203edb7517321831d95078c5f6290600090a450505050565b6000546001600160a01b031633146105d6576040517f08c379a000000000000000000000000000000000000000000000000000000000815260206004820181905260248201527f4f776e61626c653a2063616c6c6572206973206e6f7420746865206f776e65726044820152606401610686565b600080546001600160a01b038381167fffffffffffffffffffffffff0000000000000000000000000000000000000000831681178455604051919092169283917f8be0079c531659141344cd1fd0a4f28419497f9722a3daafe3b4186f6b6457e09190a35050565b80356001600160a01b038116811461093057600080fd5b919050565b6000806040838503121561094857600080fd5b61095183610919565b946020939093013593505050565b600060208083528351808285015260005b8181101561098c57858101830151858201604001528201610970565b506000604082860101526040601f19601f8301168501019250505092915050565b6000602082840312156109bf57600080fd5b6109c882610919565b9392505050565b801515811461069857600080fd5b600080604083850312156109f057600080fd5b6109f983610919565b91506020830135610a09816109cf565b809150509250929050565b7f4e487b7100000000000000000000000000000000000000000000000000000000600052604160045260246000fd5b600060208284031215610a5557600080fd5b813567ffffffffffffffff80821115610a6d57600080fd5b818401915084601f830112610a8157600080fd5b813581811115610a9357610a93610a14565b604051601f8201601f19908116603f01168101908382118183101715610abb57610abb610a14565b81604052828152876020848701011115610ad457600080fd5b826020860160208301376000928101602001929092525095945050505050565b600181811c90821680610b0857607f821691505b602082108103610b41577f4e487b7100000000000000000000000000000000000000000000000000000000600052602260045260246000fd5b50919050565b600060208284031215610b5957600080fd5b5051919050565b600060208284031215610b7257600080fd5b81516109c8816109cf565b601f821115610bc757600081815260208120601f850160051c81016020861015610ba45750805b601f850160051c820191505b81811015610bc357828155600101610bb0565b5050505b505050565b815167ffffffffffffffff811115610be657610be6610a14565b610bfa81610bf48454610af4565b84610b7d565b602080601f831160018114610c2f5760008415610c175750858301515b600019600386901b1c1916600185901b178555610bc3565b600085815260208120601f198616915b82811015610c5e57888601518255948401946001909101908401610c3f565b5085821015610c7c5787850151600019600388901b60f8161c191681555b5050505050600190811b0190555056fea264697066735822122013caffee1985dde2d825e2a2dec727d130eebe48fac6c43abe38aa5eda261a3e64736f6c63430008110033",
  "devdoc": {
    "kind": "dev",
    "methods": {
      "allowERC20(address,bool)": {
        "details": "Allow specific ERC20 token to be deposited.",
        "params": {
          "_allow": "True if to allow the token, otherwise false",
          "_token": "ERC20 token address"
        }
      },
      "deposit(address,uint256)": {
        "details": "Deposit tokens in the form of native token or ERC20 token. Emits Deposit event for successful deposit.",
        "params": {
          "_amount": "ERC20 token amount",
          "_token": "ERC20 token address"
        }
      },
      "owner()": {
        "details": "Returns the address of the current owner."
      },
      "renounceOwnership()": {
        "details": "Leaves the contract without owner. It will not be possible to call `onlyOwner` functions anymore. Can only be called by the current owner. NOTE: Renouncing ownership will leave the contract without an owner, thereby removing any functionality that is only available to the owner."
      },
      "setCampaignTitle(string)": {
        "details": "Set campaign title",
        "params": {
          "_title": "Title"
        }
      },
      "transferOwnership(address)": {
        "details": "Transfers ownership of the contract to a new account (`newOwner`). Can only be called by the current owner."
      },
      "withdraw(address)": {
        "details": "Withdraw the balance of specified token (ERC20 or native token) to the contract owner."
      }
    },
    "version": 1
  },
  "userdoc": {
    "kind": "user",
    "methods": {
      "deposit(address,uint256)": {
        "notice": "When _token is a zero address, it means sender only deposits native token. Otherwise, it will deposit the specified ERC20 token amount. When _token is not a zero address and msg.value is not empty, it will deposit both native and ERC20 tokens"
      },
      "withdraw(address)": {
        "notice": "Only callable by the contract owner."
      }
    },
    "version": 1
  },
  "storageLayout": {
    "storage": [
      {
        "astId": 7,
        "contract": "src/CrowdfundingEvent.sol:CrowdfundingEvent",
        "label": "_owner",
        "offset": 0,
        "slot": "0",
        "type": "t_address"
      },
      {
        "astId": 220,
        "contract": "src/CrowdfundingEvent.sol:CrowdfundingEvent",
        "label": "title",
        "offset": 0,
        "slot": "1",
        "type": "t_string_storage"
      },
      {
        "astId": 224,
        "contract": "src/CrowdfundingEvent.sol:CrowdfundingEvent",
        "label": "tokenAllowlist",
        "offset": 0,
        "slot": "2",
        "type": "t_mapping(t_address,t_bool)"
      }
    ],
    "types": {
      "t_address": {
        "encoding": "inplace",
        "label": "address",
        "numberOfBytes": "20"
      },
      "t_bool": {
        "encoding": "inplace",
        "label": "bool",
        "numberOfBytes": "1"
      },
      "t_mapping(t_address,t_bool)": {
        "encoding": "mapping",
        "key": "t_address",
        "label": "mapping(address => bool)",
        "numberOfBytes": "32",
        "value": "t_bool"
      },
      "t_string_storage": {
        "encoding": "bytes",
        "label": "string",
        "numberOfBytes": "32"
      }
    }
  }
}