{
  "address": "0x9AB31b7615CE72c9F3bE596cff635CFCb6493fdA",
  "abi": [
    {
      "inputs": [],
      "name": "InvalidToken",
      "type": "error"
    },
    {
      "inputs": [],
      "name": "NotAllowedToken",
      "type": "error"
    },
    {
      "inputs": [],
      "name": "NotEnoughAmount",
      "type": "error"
    },
    {
      "inputs": [],
      "name": "NotEnoughBalanceOrApproval",
      "type": "error"
    },
    {
      "inputs": [],
      "name": "WithdrawFail",
      "type": "error"
    },
    {
      "anonymous": false,
      "inputs": [
        {
          "indexed": true,
          "internalType": "address",
          "name": "token",
          "type": "address"
        },
        {
          "indexed": true,
          "internalType": "bool",
          "name": "allowed",
          "type": "bool"
        }
      ],
      "name": "AllowToken",
      "type": "event"
    },
    {
      "anonymous": false,
      "inputs": [
        {
          "indexed": true,
          "internalType": "address",
          "name": "user",
          "type": "address"
        },
        {
          "indexed": true,
          "internalType": "address",
          "name": "token",
          "type": "address"
        },
        {
          "indexed": true,
          "internalType": "uint256",
          "name": "amount",
          "type": "uint256"
        }
      ],
      "name": "Deposit",
      "type": "event"
    },
    {
      "anonymous": false,
      "inputs": [
        {
          "indexed": true,
          "internalType": "address",
          "name": "previousOwner",
          "type": "address"
        },
        {
          "indexed": true,
          "internalType": "address",
          "name": "newOwner",
          "type": "address"
        }
      ],
      "name": "OwnershipTransferred",
      "type": "event"
    },
    {
      "anonymous": false,
      "inputs": [
        {
          "indexed": true,
          "internalType": "address",
          "name": "token",
          "type": "address"
        },
        {
          "indexed": true,
          "internalType": "uint256",
          "name": "amount",
          "type": "uint256"
        }
      ],
      "name": "Withdraw",
      "type": "event"
    },
    {
      "inputs": [
        {
          "internalType": "address",
          "name": "_token",
          "type": "address"
        },
        {
          "internalType": "bool",
          "name": "_allow",
          "type": "bool"
        }
      ],
      "name": "allowERC20",
      "outputs": [],
      "stateMutability": "nonpayable",
      "type": "function"
    },
    {
      "inputs": [
        {
          "internalType": "address",
          "name": "_token",
          "type": "address"
        },
        {
          "internalType": "uint256",
          "name": "_amount",
          "type": "uint256"
        }
      ],
      "name": "deposit",
      "outputs": [],
      "stateMutability": "payable",
      "type": "function"
    },
    {
      "inputs": [],
      "name": "owner",
      "outputs": [
        {
          "internalType": "address",
          "name": "",
          "type": "address"
        }
      ],
      "stateMutability": "view",
      "type": "function"
    },
    {
      "inputs": [],
      "name": "renounceOwnership",
      "outputs": [],
      "stateMutability": "nonpayable",
      "type": "function"
    },
    {
      "inputs": [
        {
          "internalType": "string",
          "name": "_title",
          "type": "string"
        }
      ],
      "name": "setCampaignTitle",
      "outputs": [],
      "stateMutability": "nonpayable",
      "type": "function"
    },
    {
      "inputs": [],
      "name": "title",
      "outputs": [
        {
          "internalType": "string",
          "name": "",
          "type": "string"
        }
      ],
      "stateMutability": "view",
      "type": "function"
    },
    {
      "inputs": [
        {
          "internalType": "address",
          "name": "",
          "type": "address"
        }
      ],
      "name": "tokenAllowlist",
      "outputs": [
        {
          "internalType": "bool",
          "name": "",
          "type": "bool"
        }
      ],
      "stateMutability": "view",
      "type": "function"
    },
    {
      "inputs": [
        {
          "internalType": "address",
          "name": "newOwner",
          "type": "address"
        }
      ],
      "name": "transferOwnership",
      "outputs": [],
      "stateMutability": "nonpayable",
      "type": "function"
    },
    {
      "inputs": [
        {
          "internalType": "address",
          "name": "_token",
          "type": "address"
        }
      ],
      "name": "withdraw",
      "outputs": [],
      "stateMutability": "nonpayable",
      "type": "function"
    }
  ],
  "transactionHash": "0xaa795cbb4d20140ece3e222017158abcab025aebe40c368c8c9d6f6fe52c2b85",
  "args": [],
  "numDeployments": 2,
  "solcInputHash": "e20e19ac8f84fc2008fd9782c90c03dc",
  "bytecode": "0x608060405234801561001057600080fd5b5061001a3361001f565b61006f565b600080546001600160a01b038381166001600160a01b0319831681178455604051919092169283917f8be0079c531659141344cd1fd0a4f28419497f9722a3daafe3b4186f6b6457e09190a35050565b610c5c8061007e6000396000f3fe6080604052600436106100965760003560e01c8063715018a6116100695780638da5cb5b1161004e5780638da5cb5b14610170578063c330645014610198578063f2fde38b146101b857600080fd5b8063715018a61461011b5780638135369a1461013057600080fd5b806347e7ef241461009b5780634a79d50c146100b057806351cff8d9146100db578063654f296c146100fb575b600080fd5b6100ae6100a93660046108cf565b6101d8565b005b3480156100bc57600080fd5b506100c561022b565b6040516100d291906108f9565b60405180910390f35b3480156100e757600080fd5b506100ae6100f6366004610947565b6102b9565b34801561010757600080fd5b506100ae610116366004610977565b6104e4565b34801561012757600080fd5b506100ae61055e565b34801561013c57600080fd5b5061016061014b366004610947565b60026020526000908152604090205460ff1681565b60405190151581526020016100d2565b34801561017c57600080fd5b506000546040516001600160a01b0390911681526020016100d2565b3480156101a457600080fd5b506100ae6101b33660046109dd565b610572565b3480156101c457600080fd5b506100ae6101d3366004610947565b610586565b341561020e57604051349060009033907f5548c837ab068cf56a2c2479df0882a4922fd203edb7517321831d95078c5f62908390a45b6001600160a01b03821615610227576102278282610635565b5050565b6001805461023890610a8e565b80601f016020809104026020016040519081016040528092919081815260200182805461026490610a8e565b80156102b15780601f10610286576101008083540402835291602001916102b1565b820191906000526020600020905b81548152906001019060200180831161029457829003601f168201915b505050505081565b6102c16107d7565b6000806001600160a01b0383166103405750476102e66000546001600160a01b031690565b6001600160a01b03168160405160006040518083038185875af1925050503d8060008114610330576040519150601f19603f3d011682016040523d82523d6000602084013e610335565b606091505b505080925050610473565b6040517f70a0823100000000000000000000000000000000000000000000000000000000815230600482015283906001600160a01b038216906370a0823190602401602060405180830381865afa15801561039f573d6000803e3d6000fd5b505050506040513d601f19601f820116820180604052508101906103c39190610ae1565b9150806001600160a01b031663a9059cbb6103e66000546001600160a01b031690565b6040517fffffffff0000000000000000000000000000000000000000000000000000000060e084901b1681526001600160a01b039091166004820152602481018590526044016020604051808303816000875af115801561044b573d6000803e3d6000fd5b505050506040513d601f19601f8201168201806040525081019061046f9190610afa565b9250505b816104a9576040517ec0f29900000000000000000000000000000000000000000000000000000000815260040160405180910390fd5b60405181906001600160a01b038516907f884edad9ce6fa2440d8a54cc123490eb96d2768479d49ff9c7366125a942436490600090a3505050565b6104ec6107d7565b6001600160a01b03821660008181526002602052604080822080547fffffffffffffffffffffffffffffffffffffffffffffffffffffffffffffff001685151590811790915590519092917ffd7b8b452872251540ceb739782450d15edf99ad81e61c0049af9c6fdaba585491a35050565b6105666107d7565b610570600061084b565b565b61057a6107d7565b60016102278282610b66565b61058e6107d7565b6001600160a01b038116610629576040517f08c379a000000000000000000000000000000000000000000000000000000000815260206004820152602660248201527f4f776e61626c653a206e6577206f776e657220697320746865207a65726f206160448201527f646472657373000000000000000000000000000000000000000000000000000060648201526084015b60405180910390fd5b6106328161084b565b50565b6001600160a01b038216610675576040517fc1ab6dc100000000000000000000000000000000000000000000000000000000815260040160405180910390fd5b6001600160a01b03821660009081526002602052604081205460ff16151590036106cb576040517fe1478bb000000000000000000000000000000000000000000000000000000000815260040160405180910390fd5b6040517f23b872dd0000000000000000000000000000000000000000000000000000000081523360048201523060248201526044810182905282906000906001600160a01b038316906323b872dd906064016020604051808303816000875af115801561073c573d6000803e3d6000fd5b505050506040513d601f19601f820116820180604052508101906107609190610afa565b905080610799576040517f53ce622b00000000000000000000000000000000000000000000000000000000815260040160405180910390fd5b60405183906001600160a01b0386169033907f5548c837ab068cf56a2c2479df0882a4922fd203edb7517321831d95078c5f6290600090a450505050565b6000546001600160a01b03163314610570576040517f08c379a000000000000000000000000000000000000000000000000000000000815260206004820181905260248201527f4f776e61626c653a2063616c6c6572206973206e6f7420746865206f776e65726044820152606401610620565b600080546001600160a01b038381167fffffffffffffffffffffffff0000000000000000000000000000000000000000831681178455604051919092169283917f8be0079c531659141344cd1fd0a4f28419497f9722a3daafe3b4186f6b6457e09190a35050565b80356001600160a01b03811681146108ca57600080fd5b919050565b600080604083850312156108e257600080fd5b6108eb836108b3565b946020939093013593505050565b600060208083528351808285015260005b818110156109265785810183015185820160400152820161090a565b506000604082860101526040601f19601f8301168501019250505092915050565b60006020828403121561095957600080fd5b610962826108b3565b9392505050565b801515811461063257600080fd5b6000806040838503121561098a57600080fd5b610993836108b3565b915060208301356109a381610969565b809150509250929050565b7f4e487b7100000000000000000000000000000000000000000000000000000000600052604160045260246000fd5b6000602082840312156109ef57600080fd5b813567ffffffffffffffff80821115610a0757600080fd5b818401915084601f830112610a1b57600080fd5b813581811115610a2d57610a2d6109ae565b604051601f8201601f19908116603f01168101908382118183101715610a5557610a556109ae565b81604052828152876020848701011115610a6e57600080fd5b826020860160208301376000928101602001929092525095945050505050565b600181811c90821680610aa257607f821691505b602082108103610adb577f4e487b7100000000000000000000000000000000000000000000000000000000600052602260045260246000fd5b50919050565b600060208284031215610af357600080fd5b5051919050565b600060208284031215610b0c57600080fd5b815161096281610969565b601f821115610b6157600081815260208120601f850160051c81016020861015610b3e5750805b601f850160051c820191505b81811015610b5d57828155600101610b4a565b5050505b505050565b815167ffffffffffffffff811115610b8057610b806109ae565b610b9481610b8e8454610a8e565b84610b17565b602080601f831160018114610bc95760008415610bb15750858301515b600019600386901b1c1916600185901b178555610b5d565b600085815260208120601f198616915b82811015610bf857888601518255948401946001909101908401610bd9565b5085821015610c165787850151600019600388901b60f8161c191681555b5050505050600190811b0190555056fea2646970667358221220bc6b49a53378df571be77a556e15ab053bc804027007a498579b6082538265c464736f6c63430008110033",
  "devdoc": {
    "kind": "dev",
    "methods": {
      "allowERC20(address,bool)": {
        "details": "Allow specific ERC20 token to be deposited.",
        "params": {
          "_allow": "True if to allow the token, otherwise false",
          "_token": "ERC20 token address"
        }
      },
      "deposit(address,uint256)": {
        "details": "Deposit tokens in the form of native token or ERC20 token. Emits Deposit event for successful deposit.",
        "params": {
          "_amount": "ERC20 token amount",
          "_token": "ERC20 token address"
        }
      },
      "owner()": {
        "details": "Returns the address of the current owner."
      },
      "renounceOwnership()": {
        "details": "Leaves the contract without owner. It will not be possible to call `onlyOwner` functions anymore. Can only be called by the current owner. NOTE: Renouncing ownership will leave the contract without an owner, thereby removing any functionality that is only available to the owner."
      },
      "setCampaignTitle(string)": {
        "details": "Set campaign title",
        "params": {
          "_title": "Title"
        }
      },
      "transferOwnership(address)": {
        "details": "Transfers ownership of the contract to a new account (`newOwner`). Can only be called by the current owner."
      },
      "withdraw(address)": {
        "details": "Withdraw the balance of specified token (ERC20 or native token) to the contract owner"
      }
    },
    "version": 1
  },
  "userdoc": {
    "kind": "user",
    "methods": {
      "deposit(address,uint256)": {
        "notice": "When _token is a zero address, it means sender only deposits native token. Otherwise, it will deposit the specified ERC20 token amount. When _token is not a zero address and msg.value is not empty, it will deposit both native and ERC20 tokens"
      },
      "withdraw(address)": {
        "notice": "Only callable by the contract owner"
      }
    },
    "version": 1
  },
  "storageLayout": {
    "storage": [
      {
        "astId": 7,
        "contract": "src/CrowdfundingEvent.sol:CrowdfundingEvent",
        "label": "_owner",
        "offset": 0,
        "slot": "0",
        "type": "t_address"
      },
      {
        "astId": 220,
        "contract": "src/CrowdfundingEvent.sol:CrowdfundingEvent",
        "label": "title",
        "offset": 0,
        "slot": "1",
        "type": "t_string_storage"
      },
      {
        "astId": 224,
        "contract": "src/CrowdfundingEvent.sol:CrowdfundingEvent",
        "label": "tokenAllowlist",
        "offset": 0,
        "slot": "2",
        "type": "t_mapping(t_address,t_bool)"
      }
    ],
    "types": {
      "t_address": {
        "encoding": "inplace",
        "label": "address",
        "numberOfBytes": "20"
      },
      "t_bool": {
        "encoding": "inplace",
        "label": "bool",
        "numberOfBytes": "1"
      },
      "t_mapping(t_address,t_bool)": {
        "encoding": "mapping",
        "key": "t_address",
        "label": "mapping(address => bool)",
        "numberOfBytes": "32",
        "value": "t_bool"
      },
      "t_string_storage": {
        "encoding": "bytes",
        "label": "string",
        "numberOfBytes": "32"
      }
    }
  }
}