{
  "address": "0x28E3586d47C8f8A3562f04869d40c82D0a929D59",
  "abi": [
    {
      "inputs": [],
      "name": "InvalidToken",
      "type": "error"
    },
    {
      "inputs": [],
      "name": "NotEnoughAmount",
      "type": "error"
    },
    {
      "inputs": [],
      "name": "NotEnoughBalanceOrApproval",
      "type": "error"
    },
    {
      "inputs": [],
      "name": "NotWhitelistedToken",
      "type": "error"
    },
    {
      "inputs": [],
      "name": "WithdrawFail",
      "type": "error"
    },
    {
      "anonymous": false,
      "inputs": [
        {
          "indexed": true,
          "internalType": "address",
          "name": "user",
          "type": "address"
        },
        {
          "indexed": true,
          "internalType": "address",
          "name": "token",
          "type": "address"
        },
        {
          "indexed": true,
          "internalType": "uint256",
          "name": "amount",
          "type": "uint256"
        }
      ],
      "name": "Deposit",
      "type": "event"
    },
    {
      "anonymous": false,
      "inputs": [
        {
          "indexed": true,
          "internalType": "address",
          "name": "previousOwner",
          "type": "address"
        },
        {
          "indexed": true,
          "internalType": "address",
          "name": "newOwner",
          "type": "address"
        }
      ],
      "name": "OwnershipTransferred",
      "type": "event"
    },
    {
      "anonymous": false,
      "inputs": [
        {
          "indexed": true,
          "internalType": "address",
          "name": "token",
          "type": "address"
        },
        {
          "indexed": true,
          "internalType": "bool",
          "name": "whitelist",
          "type": "bool"
        }
      ],
      "name": "WhitelistToken",
      "type": "event"
    },
    {
      "anonymous": false,
      "inputs": [
        {
          "indexed": true,
          "internalType": "address",
          "name": "token",
          "type": "address"
        },
        {
          "indexed": true,
          "internalType": "uint256",
          "name": "amount",
          "type": "uint256"
        }
      ],
      "name": "Withdraw",
      "type": "event"
    },
    {
      "inputs": [],
      "name": "deposit",
      "outputs": [],
      "stateMutability": "payable",
      "type": "function"
    },
    {
      "inputs": [
        {
          "internalType": "address",
          "name": "_token",
          "type": "address"
        },
        {
          "internalType": "uint256",
          "name": "_amount",
          "type": "uint256"
        }
      ],
      "name": "depositERC20",
      "outputs": [],
      "stateMutability": "nonpayable",
      "type": "function"
    },
    {
      "inputs": [],
      "name": "owner",
      "outputs": [
        {
          "internalType": "address",
          "name": "",
          "type": "address"
        }
      ],
      "stateMutability": "view",
      "type": "function"
    },
    {
      "inputs": [],
      "name": "renounceOwnership",
      "outputs": [],
      "stateMutability": "nonpayable",
      "type": "function"
    },
    {
      "inputs": [
        {
          "internalType": "string",
          "name": "_title",
          "type": "string"
        }
      ],
      "name": "setCampaignTitle",
      "outputs": [],
      "stateMutability": "nonpayable",
      "type": "function"
    },
    {
      "inputs": [],
      "name": "title",
      "outputs": [
        {
          "internalType": "string",
          "name": "",
          "type": "string"
        }
      ],
      "stateMutability": "view",
      "type": "function"
    },
    {
      "inputs": [
        {
          "internalType": "address",
          "name": "",
          "type": "address"
        }
      ],
      "name": "tokenWhitelist",
      "outputs": [
        {
          "internalType": "bool",
          "name": "",
          "type": "bool"
        }
      ],
      "stateMutability": "view",
      "type": "function"
    },
    {
      "inputs": [
        {
          "internalType": "address",
          "name": "newOwner",
          "type": "address"
        }
      ],
      "name": "transferOwnership",
      "outputs": [],
      "stateMutability": "nonpayable",
      "type": "function"
    },
    {
      "inputs": [
        {
          "internalType": "address",
          "name": "_token",
          "type": "address"
        },
        {
          "internalType": "bool",
          "name": "_whitelist",
          "type": "bool"
        }
      ],
      "name": "whitelistERC20",
      "outputs": [],
      "stateMutability": "nonpayable",
      "type": "function"
    },
    {
      "inputs": [
        {
          "internalType": "address",
          "name": "_token",
          "type": "address"
        }
      ],
      "name": "withdraw",
      "outputs": [],
      "stateMutability": "nonpayable",
      "type": "function"
    }
  ],
  "transactionHash": "0x5253fb4294b2afba85020ce7a256811fb337c189875fada037f428191c2c16bb",
  "args": [],
  "numDeployments": 1,
  "solcInputHash": "8ceb0ea3e0c2b59e892045d86fe4f90a",
  "bytecode": "0x608060405234801561001057600080fd5b5061001a3361001f565b61006f565b600080546001600160a01b038381166001600160a01b0319831681178455604051919092169283917f8be0079c531659141344cd1fd0a4f28419497f9722a3daafe3b4186f6b6457e09190a35050565b610ca88061007e6000396000f3fe6080604052600436106100b15760003560e01c806397feb92611610069578063c39569521161004e578063c3956952146101c0578063d0e30db0146101e0578063f2fde38b146101e857600080fd5b806397feb92614610180578063c3306450146101a057600080fd5b8063715018a61161009a578063715018a614610103578063753d7563146101185780638da5cb5b1461015857600080fd5b80634a79d50c146100b657806351cff8d9146100e1575b600080fd5b3480156100c257600080fd5b506100cb610208565b6040516100d891906108ff565b60405180910390f35b3480156100ed57600080fd5b506101016100fc366004610969565b610296565b005b34801561010f57600080fd5b506101016104c1565b34801561012457600080fd5b50610148610133366004610969565b60026020526000908152604090205460ff1681565b60405190151581526020016100d8565b34801561016457600080fd5b506000546040516001600160a01b0390911681526020016100d8565b34801561018c57600080fd5b5061010161019b36600461098b565b6104d5565b3480156101ac57600080fd5b506101016101bb3660046109e4565b610677565b3480156101cc57600080fd5b506101016101db366004610aa3565b61068f565b610101610709565b3480156101f457600080fd5b50610101610203366004610969565b610774565b6001805461021590610ada565b80601f016020809104026020016040519081016040528092919081815260200182805461024190610ada565b801561028e5780601f106102635761010080835404028352916020019161028e565b820191906000526020600020905b81548152906001019060200180831161027157829003601f168201915b505050505081565b61029e610823565b6000806001600160a01b03831661031d5750476102c36000546001600160a01b031690565b6001600160a01b03168160405160006040518083038185875af1925050503d806000811461030d576040519150601f19603f3d011682016040523d82523d6000602084013e610312565b606091505b505080925050610450565b6040517f70a0823100000000000000000000000000000000000000000000000000000000815230600482015283906001600160a01b038216906370a0823190602401602060405180830381865afa15801561037c573d6000803e3d6000fd5b505050506040513d601f19601f820116820180604052508101906103a09190610b2d565b9150806001600160a01b031663a9059cbb6103c36000546001600160a01b031690565b6040517fffffffff0000000000000000000000000000000000000000000000000000000060e084901b1681526001600160a01b039091166004820152602481018590526044016020604051808303816000875af1158015610428573d6000803e3d6000fd5b505050506040513d601f19601f8201168201806040525081019061044c9190610b46565b9250505b81610486576040517ec0f29900000000000000000000000000000000000000000000000000000000815260040160405180910390fd5b60405181906001600160a01b038516907f884edad9ce6fa2440d8a54cc123490eb96d2768479d49ff9c7366125a942436490600090a3505050565b6104c9610823565b6104d36000610897565b565b6001600160a01b038216610515576040517fc1ab6dc100000000000000000000000000000000000000000000000000000000815260040160405180910390fd5b6001600160a01b03821660009081526002602052604081205460ff161515900361056b576040517f65a9cebb00000000000000000000000000000000000000000000000000000000815260040160405180910390fd5b6040517f23b872dd0000000000000000000000000000000000000000000000000000000081523360048201523060248201526044810182905282906000906001600160a01b038316906323b872dd906064016020604051808303816000875af11580156105dc573d6000803e3d6000fd5b505050506040513d601f19601f820116820180604052508101906106009190610b46565b905080610639576040517f53ce622b00000000000000000000000000000000000000000000000000000000815260040160405180910390fd5b60405183906001600160a01b0386169033907f5548c837ab068cf56a2c2479df0882a4922fd203edb7517321831d95078c5f6290600090a450505050565b61067f610823565b600161068b8282610bb2565b5050565b610697610823565b6001600160a01b03821660008181526002602052604080822080547fffffffffffffffffffffffffffffffffffffffffffffffffffffffffffffff001685151590811790915590519092917f06a27d2e85b249c0d83da8b892fb8e69167e1319fb3bb86f860b245f9e0d729f91a35050565b34600003610743576040517fe008b5f900000000000000000000000000000000000000000000000000000000815260040160405180910390fd5b604051349060009033907f5548c837ab068cf56a2c2479df0882a4922fd203edb7517321831d95078c5f62908390a4565b61077c610823565b6001600160a01b038116610817576040517f08c379a000000000000000000000000000000000000000000000000000000000815260206004820152602660248201527f4f776e61626c653a206e6577206f776e657220697320746865207a65726f206160448201527f646472657373000000000000000000000000000000000000000000000000000060648201526084015b60405180910390fd5b61082081610897565b50565b6000546001600160a01b031633146104d3576040517f08c379a000000000000000000000000000000000000000000000000000000000815260206004820181905260248201527f4f776e61626c653a2063616c6c6572206973206e6f7420746865206f776e6572604482015260640161080e565b600080546001600160a01b038381167fffffffffffffffffffffffff0000000000000000000000000000000000000000831681178455604051919092169283917f8be0079c531659141344cd1fd0a4f28419497f9722a3daafe3b4186f6b6457e09190a35050565b600060208083528351808285015260005b8181101561092c57858101830151858201604001528201610910565b506000604082860101526040601f19601f8301168501019250505092915050565b80356001600160a01b038116811461096457600080fd5b919050565b60006020828403121561097b57600080fd5b6109848261094d565b9392505050565b6000806040838503121561099e57600080fd5b6109a78361094d565b946020939093013593505050565b7f4e487b7100000000000000000000000000000000000000000000000000000000600052604160045260246000fd5b6000602082840312156109f657600080fd5b813567ffffffffffffffff80821115610a0e57600080fd5b818401915084601f830112610a2257600080fd5b813581811115610a3457610a346109b5565b604051601f8201601f19908116603f01168101908382118183101715610a5c57610a5c6109b5565b81604052828152876020848701011115610a7557600080fd5b826020860160208301376000928101602001929092525095945050505050565b801515811461082057600080fd5b60008060408385031215610ab657600080fd5b610abf8361094d565b91506020830135610acf81610a95565b809150509250929050565b600181811c90821680610aee57607f821691505b602082108103610b27577f4e487b7100000000000000000000000000000000000000000000000000000000600052602260045260246000fd5b50919050565b600060208284031215610b3f57600080fd5b5051919050565b600060208284031215610b5857600080fd5b815161098481610a95565b601f821115610bad57600081815260208120601f850160051c81016020861015610b8a5750805b601f850160051c820191505b81811015610ba957828155600101610b96565b5050505b505050565b815167ffffffffffffffff811115610bcc57610bcc6109b5565b610be081610bda8454610ada565b84610b63565b602080601f831160018114610c155760008415610bfd5750858301515b600019600386901b1c1916600185901b178555610ba9565b600085815260208120601f198616915b82811015610c4457888601518255948401946001909101908401610c25565b5085821015610c625787850151600019600388901b60f8161c191681555b5050505050600190811b0190555056fea264697066735822122007275351b20e84f3d6c03e8b5944b4a31c2208d4663f44709c79eaba7445f04d64736f6c63430008110033",
  "devdoc": {
    "kind": "dev",
    "methods": {
      "owner()": {
        "details": "Returns the address of the current owner."
      },
      "renounceOwnership()": {
        "details": "Leaves the contract without owner. It will not be possible to call `onlyOwner` functions anymore. Can only be called by the current owner. NOTE: Renouncing ownership will leave the contract without an owner, thereby removing any functionality that is only available to the owner."
      },
      "transferOwnership(address)": {
        "details": "Transfers ownership of the contract to a new account (`newOwner`). Can only be called by the current owner."
      }
    },
    "version": 1
  },
  "userdoc": {
    "kind": "user",
    "methods": {},
    "version": 1
  },
  "storageLayout": {
    "storage": [
      {
        "astId": 7,
        "contract": "src/CrowdfundingEvent.sol:CrowdfundingEvent",
        "label": "_owner",
        "offset": 0,
        "slot": "0",
        "type": "t_address"
      },
      {
        "astId": 220,
        "contract": "src/CrowdfundingEvent.sol:CrowdfundingEvent",
        "label": "title",
        "offset": 0,
        "slot": "1",
        "type": "t_string_storage"
      },
      {
        "astId": 224,
        "contract": "src/CrowdfundingEvent.sol:CrowdfundingEvent",
        "label": "tokenWhitelist",
        "offset": 0,
        "slot": "2",
        "type": "t_mapping(t_address,t_bool)"
      }
    ],
    "types": {
      "t_address": {
        "encoding": "inplace",
        "label": "address",
        "numberOfBytes": "20"
      },
      "t_bool": {
        "encoding": "inplace",
        "label": "bool",
        "numberOfBytes": "1"
      },
      "t_mapping(t_address,t_bool)": {
        "encoding": "mapping",
        "key": "t_address",
        "label": "mapping(address => bool)",
        "numberOfBytes": "32",
        "value": "t_bool"
      },
      "t_string_storage": {
        "encoding": "bytes",
        "label": "string",
        "numberOfBytes": "32"
      }
    }
  }
}